:20000000604000201984000001CA011001CA011001CA011001CA011001CA011001CA01105B
:1C00200001CA011001CA011001CA011001CA011001CA011001CA01103FCA011082
:20003C0000008001100082FFFDFF58003AFFBFF3FFFFFFFFFFFFFFFFFFFFFFFFFFFFFFFF63
:20005C00FFFFFFFFFFFFFFFFFFFFFFFFFFFFFFFFFFFFFFC5FFFFFFFFC5FFFFFFC5C5C5FFC6
:18007C00C5C5C5FF00000000FFFFFFFFFFFFFFFFFFFFFFFFFFFFFFFF2E
:200100003C000000000000000000000034010000000000000000000001000000000000006D
:1C01200000000000000000000000000001000000000000000800000000000000BA
:20013C00340000000000000000000000680100000000000000000000010000000000000005
:14015C00010000000000000000000000080000000000000086
:2001700030000000000000000000000098010000040000000000000001000000FFFFFFFFA5
:10019000FF00000001000000080000000000000057
:2001A0002C0000000000000000000000C4010000040000000000000001000000FFFFFFFF4D
:0C01C000FFFFFFFF08000000000000002F
:2001CC0034050000E401000099A1011095A70110A5C2011009B2011045B80110000000000B
:0801EC00000000002E000000DD
:2001F400280000000000000000000000140200000000000000000000FFFFFFFF00000000B1
:080214000800000000000000DA
:20021C00300500003002000069C201106DC101101FC2011095BA011000000000000000008E
:04023C00300000008E
:20024000300500005402000075C20110A9B601109DBF011049B601100000000000000000DE
:040260003100000069
:200264002400000000000000000000008002000000000000000000000000000008000000CC
:040284000000000076
:20028800240000000000000000000000A40200000000000000000000000000000800000084
:0402A8000000000052
:2002AC00240000000000000000000000C8020000000000000100000000000000080000003B
:0402CC00000000002E
:2002D00000000000AC1B002004000000000000000000000020000000700100003000000062
:2002F0001C020000C01B00200400000000000000000000000C000000300400001800000079
:2003100040020000CC1B0020040000000000000000000000240000004804000018000000F8
:2003300000000000D41B002004000000000000000000000010000000A00100002C000000BD
:20035000CC010000DC1B0020040000000000000000000000200000006402000024000000FB
:20037000FFFFFFFFFC1B002004000000000000000000000028000000880200002400000060
:20039000FFFFFFFF0C1C0020040000000000000000000000580000003C010000340000003C
:2003B000FFFFFFFF141C002004000000000000000000000010000000600400001800000051
:2003D000FFFFFFFF1C1C00200400000000000000000000001C000000AC02000024000000C7
:2003F000FFFFFFFF241C002004000000000000000000000038000000F40100002800000038
:20041000FFFFFFFF2C1C002004000000000000000000000054000000000100003C000000D3
:1804300018000000000000000000000040040000080000000000000050
:1804480018000000000000000000000058040000080000000000000020
:18046000180000000000000000000000700400000800000000000000F0
:080478000100000038B900008A
:040484000100000073
:0404880000000C0064
:04048C0000000D005F
:040490003200000036
:040494000200000062
:04049800DC23002041
:04049C00000200005A
:0404A0000000000058
:0404A40001CA011078
:0404A8000000000050
:0404AC00000000004C
:0404B0000800000040
:0404B4000000200024
:0404B80040230020BD
:0404BC00010000003B
:0404C000E41B002019
:0404C400080000002C
:0404C8000000000030
:0404CC00000000002C
:0404D0000000000028
:0404D4000000000024
:0404D8000000000020
:0404DC00010000001B
:0404E0003C24002098
:0404E400060000000E
:0404E800010000000F
:0404EC00602200206A
:0404F0000000000008
:0404F4000000000004
:0404F80000020000FE
:0404FC0000000000FC
:020502002A00CD
:020504000100F4
:020506002500CE
:020508003000C1
:02050A003100BE
:02050C002E00BF
:02050E000100EA
:0105100001E9
:0805140003000000F0B8000034
:08051C000000000000000000D7
:0405240000000100D2
:0405280000000300CC
:04052C0087C401106F
:04053000380500008A
:040534003805000086
:0405380000000000BF
:04053C00800000003B
:040540008000000037
:0405440000000000B3
:04054800E41B002090
:04054C00B5A900004D
:040550002000000087
:0405540088B8000063
:04055800F8B60000F1
:04055C000DC30110BA
:040560004F6D0000DB
:040564007B6E0000AA
:0405680099C801101D
:04056C009BC8011017
:040570000000000087
:04057400BFB800000C
:04057800A8B4000023
:04057C00C0B4000007
:0405800090B4000033
:0205840008006D
:0205860009006A
:02058800010070
:02058A0000006F
:01058C00016D
:040590000000000067
:040594000000000063
:04059800000000005F
:04059C00000000005B
:0405A0008DA7000023
:0405A4003588000096
:0405A8007D9F000033
:0405AC00298500009D
:0405B0009D6F00003B
:0405B400ED920000C4
:0405B800295B0000BB
:0405BC00CDA20000CC
:0405C000957300002F
:0405C40011C8011049
:0405C80021C8011035
:0405CC000800000023
:0405D0002400000003
:0405D400180000000B
:0405D80028000000F7
:0405DC0020000000FB
:0405E0003C000000DB
:0405E4000C00000007
:0405E80034000000DB
:2005EC002DE9F04F064640F29421012541F22D00ADF10C0DC4F22231C4F2090040F81D5CB1
:20060C0008680028FCD043F6AC7E46F2440AC020C5F2000EC4F20C0AF4464AF8440CDEF86E
:20062C000890DCF8041046F25620C4F20800890807D271460A686FF00F0E4EEA12410170B7
:20064C0001E07221017041F28C38C5F2000858F8D41CC1F304611629A8BF203962469268F9
:20066C0012175118491C11F10A0FB8BF6FF0090100232C4625EAD96201F01F01C4F2203383
:20068C0041F4F851018324EA996E1A60002EC3F808E073D058F83C1CC1F38360C1F38F2700
:2006AC005FEA994167D249F3072CBCF1000F29D549F307214A42B1F1FF3F4FEA620215DA4D
:2006CC007F0805D1400806BF281C2F1C4FF6FF777F080CF1010C05D1400806BF281C2F1C57
:2006EC004FF6FF77521E0CF1010CE9D1490809D37F0805D1400806BF281C2F1C4FF6FF771E
:20070C000CF1010CBCF1000F35DDBCF1020F4FEA6C020CF001031DDB4FF6FF717F0047F02D
:20072C000107B94207D2400040F001000F2892BF2F1C0F200F1C7F0047F00107B94207D2A1
:20074C00400040F001000F2892BF2F1C0F200F1C521EE3D1002B0EDD7F004FF6FF7147F04A
:20076C000107B94207D2400040F001000F2892BF2F1C0F200F1C47EA004703E040F6FF77EC
:20078C00C0F20F070AF01AFA39460022002808BF2A1C48F20007C4F20C0738680028FCD003
:2007AC004AF20800C4F20C0001613D600AB10AF00BFA002E08BFD82109D058F83C1C58F8AF
:2007CC003C0CC1F3870100F0030041EA002188B2009040F2FF3200232C214AF20000C4F2BB
:2007EC000C0007F010F8002E1ABF58F8100CC0F30D0B40F2FF3B0AF0E1F90021002808BF54
:20080C00291C38680028FCD04AF20800C4F20C00C0F814B03D6009B10AF0D6F9002E04BF60
:20082C004FF0000BC6F6880B0DD058F818BC0BF07C420BF47C010BF47C4011430BF0FC0BCC
:20084C0008434BEA000B0AF0B9F90021002808BF291C38680028FCD04AF20800C4F20C0066
:20086C00C0F80CB03D6009B10AF0AEF9002E04BF47F28A6BC0F2680B0DD058F81CBC0BF4B8
:20088C007C020BF47C410BF4707011430BF03F0B08434BEA000B0AF091F90021002808BF7B
:2008AC00291C38680028FCD04AF20800C4F20C00C0F808B03D6009B10AF086F9002E3AD0D5
:2008CC0058F8140C43F6AC71C5F200014B68C0F303525B08C0F3034117D243F6AC73C5F281
:2008EC0000031B6843F3032C12EB0C0203D4102A02DB0F2200E0002243F30333C91803D4B1
:20090C00102902DB0F2100E0002141EA021100F47F4200F0F00E0B0400F00F0B222E42EA0E
:20092C0003024EEA02014BEA010B08D300F0804040EA0B0B03E043F6277BC0F2710B0AF079
:20094C003DF90021002808BF291C38680028FCD04AF20800C4F20C00C0F804B03D6009B1A3
:20096C000AF032F9222E26BFD8F80000C0F30070281C4AF2400BC4F20C0B222E4FEA4000BD
:20098C0040F020008BF8090126BFD8F80000C0F34070281C202E40F010008BF809013CBFFC
:2009AC00002001900CD3D8F80C00C20C02F44072800D00F01C0100F003001143084301908C
:2009CC000AF0FCF8019A0021002808BF291C38680028FCD04AF20800C4F20C0002623D6092
:2009EC0009B10AF0F1F8202E26BFD8F80C00C0F301500020222E4FEA400040F060008BF83F
:200A0C000C0126BFD8F80000C0F3C06100216FF07F00222E40EAC1008BF8010126BFD8F8C0
:200A2C000000C0F3455100214FF60040202ECFF6FF7040EA8100ABF89C0105D248F200003D
:200A4C00C4F23F0001900BE0D8F80C000003820D00F47C11920500F47040114308430190BF
:200A6C000AF0ACF8019A0021002808BF291C38680028FCD04AF20800C4F20C0002603D6043
:200A8C0009B10AF0A1F844204FF0880E8BF8C500002E8BF8C7E01ABFD8F80000C0F3C141C6
:200AAC00002140F68406C9F3815041F03001C4F28C3600288BF8C81041D0401E07D0401EBB
:200ACC0037D00420022107F018F800214BE0284609F062FA04460420214607F00EF80420B0
:200AEC0009F05AFA8442FAD143F6AC70C5F2000050F8040C0104090C4AF8081CC0F3074E20
:200B0C004AF804ECCAF8005031680029FCD0002240F2B411CAF80020C1F2000109680B6864
:200B2C00000E4FF06022072198474FF48060CBF800000420032106F0E0FF002113E0042098
:200B4C00294606F0DAFF43F2BD704AF8080C4FF086094AF8049CCAF8005030680028FCD045
:200B6C000021CAF8001058F8200C4BF2700342F22C0E41F22D0C47F6180240F29449C4F254
:200B8C000C0300F03F00C4F2090E8BF8CB0FC4F2090C1A80DEF800004AF8441CC4F26029C5
:200BAC004CF81D1C03B0C9F80050BDE8F08F70472DE9F04FADF1840D05F0CAFBD24C04F1BC
:200BCC00180004F15C0104F007FEDA49E0600AF001F84FF0080A0126DFF85C93ADF868A065
:200BEC00D9F80000ADF86A6001461AA88847BDF86C0060801C98A06004F1240009F076FF95
:200C0C00002504F17807D44920614FF47A722B46009504200190384606F046FD1F2031463A
:200C2C0008F01AFC4FF44870ADF81C008DF82460A846ADF822808DF8208009AAADF81EA065
:200C4C003146ADF81A806420ADF8180040F2053001F054F940F2063002210DF1220201F04E
:200C6C004DF904F140054FF442701B212A4601F045F940F20730102104F1300201F03EF92F
:200C8C001D97A5F1100B4FF44470314608AA01F035F940F2113002210DF11E0201F02EF9D8
:200CAC0040F21230022107AA01F028F940F2133002210DF11A0201F021F94FF445700221F6
:200CCC0006AA01F01BF9A54D4046152105F1470209F0B0FD0620A02108F0BEFB0720A02140
:200CEC0008F0BAFB5046A02108F0B6FB0920A02108F0B2FB4FF0FF300AF013F84FF0FF30CB
:200D0C000AF00CF809F08CFD05F111023046112102F08CF9022005212A4602F087F90520D0
:200D2C002A46014602F082F905F134020320132102F07CF96A1D04200C2102F077F905F169
:200D4C002207062012213A4602F070F97F2004F041F97F2814BF0A200F20052107F070F904
:200D6C0006F086F807F046F909F06CFE09F04CF908F09EFF04F1140008F054FB404608F0B9
:200D8C003EFF6C49E06809F025FFAB480BF10F070BF10E0244F62061209700681F92B1FBA8
:200DAC00F0F01E900A21ADF862104FF0FF37ADF860A0D9F800001997014618A888470028BE
:200DCC0040F023814046D9F8007002900926ADF850A03946ADF8526014A88847169D0028DA
:200DEC00029540F00681BDF8540010280CD16088BDF85610884207D128460178B02903D142
:200E0C000179083009F0F2FA0298002800F0F1800321ADF84A10ADF848A0D9F800001395E3
:200E2C00014612A88847E4E0206909F001FA071C00F0DF803E78781C761E2FD0761E40F082
:200E4C00CD800078B978401E24D0401E1ED0801E18D0401E12D0401E0CD0401E06D0C01EE0
:200E6C0040F0BC80084604F023FCB7E0084603F083FDB3E0084604F0F5FCAFE0084604F0AA
:200E8C0015FFABE0084603F017FDA7E0084604F059FCA3E0084604F0C7FE9FE00578681E28
:200EAC005ED0401E1FD0801E012847D9801E02D0801E2BD091E01D9809F0CCFD10B91D9855
:200ECC0009F06AFFE0680A21424608F081F8E0680F21424608F07CF8E0681521424608F0CE
:200EEC0077F87EA077E01D9809F0B4FD10B91D9809F052FF8BF80D8040F2073010215A4691
:200F0C0000F0FCFF78A066E0300D002009F0A0F809F068F808F0C8FF08F0E0FE08F090F820
:200F2C0006F01AFDE0680A21012208F051F871A051E0C0464DA60000981A002009F088F83B
:200F4C0009F050F808F0B0FF08F0C8FE08F078F806F002FD69A03EE0CDA8000094B300009F
:200F6C00E06805260F21012208F032F81E9809F0C9FFE0680F21424608F02AF81E9809F03D
:200F8C00C1FFE068761EEDD14FF4417010A901F0E1FD9DF841608DF839608DF83C809DF845
:200FAC0044108DF83B809DF845208DF83E109DF840008DF83F209DF842308DF838009DF8B2
:200FCC0043608DF83A3051460EAA40468DF83D6002F02CF84CA005F083F925700521ADF8A9
:200FEC003210ADF830A0D9F800000D9701460CA88847206909F082FF00283FF415AF03F0DA
:20100C00D1FD09F013F802F09DF8A088C108FFF4C9AE20F004002178A080062918BF022912
:20102C007FF4C0AE1D9809F0B7FE207802287FF4B9AE454614E0C04634B90000E0680A21DF
:20104C00012207F0C5FF1E9809F05CFFE0680A21424607F0BDFF1E9809F054FF6D1CEDB2C4
:20106C00002DEBD0012005AA8DF81400014605F031FC012004F01AFE02200DF1160108F04E
:20108C0085FB01200DF1150108F080FB40460DF1250108F07BFB9DF828209DF827109DF8C6
:2010AC0026309DF8250041EA022140EA032004AA03AB05F003FB049808F0B8FA1F990870B4
:2010CC00039808F0B3FA20995A46087040F20730102100F013FF06F0BBFA63E6436F6E6ED5
:2010EC00656374656400C0464164766572746973696E67004572726F7200C04657616974B4
:20110C00696E672E2E2E00C0496E697469616C697A6564002DE9F04F0820ADF1740DDFF852
:20112C0028B3ADF838000120ADF83A00DBF8000001460EA88847C54CBDF83C002082002682
:20114C0066701098A0624FF6FF70E08208F03CF8B046C44D2070324633460120CDF80080D3
:20116C002946019004F1A800139006F09DFA0220CDF80080324633462946019004F1CC007D
:20118C00129006F091FA0420CDF80080324633462946019004F1F000119006F085FA04F1D6
:2011AC004A09042010223146A070484604F0FCFE04F15A0A10225046314604F0F5FE04F103
:2011CC002C073E6004F10A052E70072060721021E6714A462672022008F012F8032010216F
:2011EC00524608F00DF804203A46014608F008F813981490CDF85890CDF85CA04FF0030864
:20120C001A9705F13A00139005F17F00159005F12E00189005F16000199034351B950AE056
:20122C006078062818BF072805D1208AE18A1322C0B207F095FB08200A21ADF830004FF016
:20124C00FF35ADF83210DBF800700D950CA839468847002840F069813046082102900925DF
:20126C00ADF82010DBF80070ADF8225008A839468847DDF828A00028CDF808A040F05581FD
:20128C00BDF82410208A102940F04181BDF82610884240F03C8155462A884FF6FF73A91C19
:2012AC00934200F02C8151460F78A23F00F008812E3F40F02C818978B146002900F0D48089
:2012CC00891E00F0A880491E01297CD9891E4CD0491E23D0491E03D0083900F0E280E4E0AF
:2012EC00119809F05BFD02984778002F40F0DD80C1882184018961844089A084129809F0E6
:20130C00A9FB002840F0D180676B002F00F0CD803B68208C618CA28C9847F8E0A88808F0ED
:20132C0058FC13984946062204F03EFE26846684A684A8796073129809F030FD119809F097
:20134C002DFD4FF001094FF6FF702779E0824FB9A879082814BF042005206070484609F08C
:20136C0087F9A2E084F801809FE06F78E37A27BB291D0A68139802608988818006276770E2
:20138C006889E082E8892084288A6084688AA084E878012B207308D11F2007F0C3FA4FF4FF
:2013AC007A714143129807F067FEE8786A892D1D0423294606F0F4FB7AE0687831286ED1C2
:2013CC00E670042023E06F78002F68D1A878A78A6178032812D0E078257927B9012814BF2C
:2013EC002671E67006E0054304D01498394607F043FE61780729E4D1062008E0062908D0BC
:20140C00E778002F08BF84F8018051D0022060704EE00720FBE76B786F1C002B3FD1ED7816
:20142C00A279ADB96078022818D0072816D0062802D12079012811D1149809F00BFB68B9AF
:20144C00012009F015F909E0981A0020A4090020159BC0B2494606F049FF38703F78F7B9D2
:20146C0023E0C0467DA600006F78C7B9169A0220102107F0E1FE179A4046102107F0DCFEBB
:20148C00ED1C29681898AF8801600125878029466279199B207C657006F028FF40B108208C
:2014AC00B5E7A888052109F057FBB9F1010F2ED1276B002F2BD03F684FB36078B84726E0E8
:2014CC006879132823D12889012810D1A07B02280DD1119809F062FC6078062818BF072806
:2014EC0015D1207CE18A132207F03AFA0FE0052007F018FA0146119807F0BEFD07E008885D
:20150C00C00B04D31A9A0420014607F095FE029FDBF800004FB10821ADF81810ADF81A80CB
:20152C00CDF81CA0014606A88847608A2779E17842082ED320F0010057EA0105608228D0FA
:20154C00234802886FB9E179207A8DF80C101B9F8DF80D003B680DF10E052B60B988A980D8
:20156C0001E08DF80C80607A8DF81400A17A8DF81510D0B203A909F0E9FA48B10820276B78
:20158C0060702FB13D681DB13868014608208847608A810806D320F002006082304605F093
:2015AC0057F8608AC108FFF446AE20F00400A77B60827F1E03D07F1E3FF432AE3BE60120BC
:2015CC000090618BA28BE38B208B05F039FF32E6B40900202DE9F84FC64DC74ED5F8EF1FBB
:2015EC00CC4C7368D5F8F30F8843C5F8F30F002BC5F8FF1F00F011817788012B00F0D6809A
:20160C00DFF8FCB2BF4FDFF800A3DFF80093DFF80083022B72D0032B40F06A810024B068F9
:20162C0055F8312C74600028A2F5C062B8BF404211460029B8BF494288422EDA111C54BFB2
:20164C0002206FF00100B26900EB4100032190FBF1F18918B161F368706998420BD0B1F1E6
:20166C001002B8BF524230691038B8BF40428242B8BF88B209DB98B20090A04830214FF4B8
:20168C007F42082306F0BFF8308A00909B4804214FF4F802122306F0B6F8584604600168D2
:2016AC008908FCD20460012644600E203E6002F0D1FF50460468EFF3118584F311884946E9
:2016CC000820B0FA80F00A1AD07F431E0128D37704D14246106820F00800106085F3118807
:2016EC00EFF3118384F311880420B0FA80F0091AC87F421E0128CA7754D14EE055F8310C09
:20170C00B0F5C06F17D00327776001F0A9FE45F8397C0027276020688008FCD277483946AD
:20172C0060220523009106F06EF80126266020688008FCD364E000217160584601600268DB
:20174C009208FCD20160012641600E203E6002F081FF50460468EFF3118584F31188494695
:20176C000820B0FA80F00A1AD07F431E0128D37704D14246106820F00800106085F3118866
:20178C00EFF3118384F311880420B0FA80F0091AC87F421E0128CA7704D14246106820F060
:2017AC000400106083F31188BDE8F88F55F8312C02214BF2F52071605043000A37B9564952
:2017CC00096821F07F414018400801E0002171806060000CA0600126E660032745F8397CD3
:2017EC000027276020688008FCD24448394660220523009106F007F8266020688008FCD3B1
:20180C0045F8216C45F8397C0820C5F8FF0FC5F8F30F45F8396CBDE8F88F404800680068E8
:20182C0001462020884741F61D574FF002080F2045F82D0C00214FF4C072072345F8297C0B
:20184C002E48CDF8008005F0DEFF012744F8047C54F8040C8008FBD3308845F81D7C0128A2
:20186C0021D0032045F8390C4FF00009C4F8009020688008FCD22148494660220523009121
:20188C0005F0C1FF276020688008FCD345F8217C45F8399C0820C5F8FF0FC5F8F30F45F846
:2018AC00397C474623E04FF00009C4F80C90032045F8390CC4F8009020688008FCD20F4811
:2018CC00CDF8008049466022052305F09CFF276020688008FCD3202045F8210C45F8399CCC
:2018EC000824C5F8FF4FC5F8F34F45F8397C7760BDE8F88F39400C40E424002000A00C40D8
:20190C0034600C4004800C4030B90000931B0020BC1F002038600C4010200940A00100104B
:20192C002DE9F04F8146B9F1010FADF11C0D40F05781AD480068EFF3118280F31188DFF841
:20194C00CCB29BF80400012818BF012003D1022100208BF8041082F31188012800F03E81B1
:20196C0009F0C8FA0390AA48046804EB0B0009F0C5FA4FF00008464637460BEB0401CDF8ED
:20198C0010800191B0B90C46084609F0AFFA0546A868400808D3E8682969024601209047CE
:2019AC00C0B2012800F01281284609F09BFA0546AC42EDD1002F40F00D8109F08FFA029009
:2019CC0005978A480760012008F0E6FA012804D1404606F0E9FE4FF00108854F3868806828
:2019EC00014630468847874819300090D0F8FF0FB9F1010F40F08C80864C0A34E57905B1B7
:201A0C000126A5790DB146F0020665790DB146F00406DFF8E09165782DB1B86A006B49467E
:201A2C000246C88D904725782DB1B86A006B49460246488D9047704901200860B86A80694E
:201A4C00014646F0200088476C4DDBF80010286840F001002860480813D2694809F03FF813
:201A6C008246BAF1040FF8D0D5F8180220F00300C5F81802B86C4068024661480321904783
:201A8C0001E001200490059800F057FDB86A0099806BD1F8FF1F8047049858B9B86C4068F6
:201AAC000246574851469047D5F8180240F00300C5F818023868806801460120884751487C
:201ACC0001688909FCD3B8F1010F02D1012006F06BFEB86A4069014630468847B86A406B00
:201AEC000146304688470128F8D166782EB1B86AC06A49460246C88D904726782EB1B86AB1
:201B0C00C06A49460246488D90473B49012008603A480168032221F00101016001988BF85F
:201B2C00042009F0EBF90028059818BF01200125C8B9019C204609F0D9F90646B068C0083A
:201B4C0007D3F0683169024604209047C0B2012806D0304609F0C6F90646B442EED102E0E8
:201B6C002948006880472148009F0560D7F8FF0F09F02AF8019809F0C1F9059FD0B9019C3E
:201B8C00204609F0B3F90646B068000907D3F0683169024608209047C0B2012806D03046C7
:201BAC0009F0A0F90646B442EED103E0164800688047022702988BF8045009F08BF905F00A
:201BCC0025F9039809F082F938460AE00E4800688047022701208BF80400F2E7062000E02F
:201BEC00022007B0BDE8F08F30B900000C4009409001001044B40000282008600C200840A1
:201C0C00004003401410094024B90000BC1F002020B90000801B00202DE9F04FADF1540D08
:201C2C00DDF878C008901F9FCDF830C086460D97BEE8000FEC46ACE8000F9EE800438CE849
:201C4C0000430B9380690A920778099137F07F070ED0C26887680F92017910974679119132
:201C6C002E29129602DC31462E290ADA007909E020277E261197D0F8C4101296001D1090D3
:201C8C000F912E20139027E1119ABDF90810BA424FEA420002DC129ABA4203DA139AC0EBF4
:201CAC00420003E0119A7800A0EB4200109A099E0F9F105A721C38180E900B9E0992401C7E
:201CCC00047807903019814200F3038100250226AA462F460E9890F80090B14540F3F98050
:201CEC00BDF90E00B842C0F2F4800698007810F07F0F18D00E98835D7BB98019407830F03D
:201D0C007F0305D14FEAC008B61C4FF0000B85E04006B61C4FEA905B87E04FEA231803F0D3
:201D2C000F0B761C7AE04FF0000802E0761C4FF0000AB1450EDD0E98805D00FA0AF008F03D
:201D4C00E1FB0828C8BFCAF1080082448044BAF1080FEBD04FF0000B02E0761C4FF0000A13
:201D6C00B1455BDD0E98805D00FA0AF0C04308F0C9FB0828C8BFCAF1080082448344BAF141
:201D8C00080FEAD04AE0B8F1020F22DB681C84421FDDBDF90A0008EB05018C42B4BFA4EBB6
:201DAC000509C146B84210DC0D9B73B108980B990C9B4069691809EB0102FB180490521E2D
:201DCC00684606F0CBF807980478A8EB09084D4420E00B99BDF908006918884217DCBDF9EA
:201DEC000C00884213DBBDF90A00B8420FDC0D9B6BB1089B5A68D06854680C9A9B8A09B2CB
:201E0C008446BA18204612B2E04707980478A8F101086D1CAC4204BF7F1C0025B8F1000F5A
:201E2C0003D0BDF90E00B842ADDABBF1000F3FF451AFBDF90E00B842FFF64CAFBBF1020F25
:201E4C0020DB681C84421DDDBDF90A000BEB05018C42B4BFA4EB0508D846B8420EDC0898FC
:201E6C000B990C9B0069691808EB0102FB180490521E684606F072F807980478ABEB080B42
:201E8C00454421E00B99BDF908006A18904218DCBDF90C00904214DBBDF90A00B84210DCD9
:201EAC00089B5868DDF830C0C1681B8A40680FFA82FE07EB0C0422B28C467146E0470798CA
:201ECC000478ABF1010B6D1CAC4204BF7F1C0025ABE70B9824180B94099807785FB10A98F6
:201EEC00401EB0F1FF3F0A9005D0BDF90C000B998842BFF6C9AE15B0BDE8F08F03462DE986
:201F0C00F041A248A04DA3F2013C002714460E46BCF11A0F1CD8DFE81CF02A0125011E01F9
:201F2C001B00FA00F400DD00CC00C500BE00B600AE00A6001B001B009D00900082007800F9
:201F4C006B001B001B001B001B0052001B002600272B06DA022E04D12188184607F07CFA60
:201F6C00CDE002270DE1012E40F003812846C178012900F0EE8002792178017182B9002995
:201F8C0000F0FF804078012800F0D480042800F0D180062800F0CE80052800F0CB80F0E090
:201FAC002178002940F0ED804178032900F0CD80072900F0CA80052940F0E380C5E0012E95
:201FCC0040F0D7802078012840F0D38005F1F00008F040FD50B9384604F03AFB071C40F00C
:201FEC00D0802846CC3008F0D9FECAE01627C8E0022E40F0BE8021880A29C0F2BA80B1F5B1
:20200C00486F00F3B6801E3015E0022E40F0B1802188B1F5FA7F80F2AC801C300BE0022E33
:20202C0040F0A78021880629C0F2A380B1F5486F00F39F801A300180A3E0022E40F099805A
:20204C0021880629C0F29580B1F5486F00F391801830F0E7012E40F08C802178022980F2B4
:20206C0088800B300DE0012E40F08380217804297FDA0A3005E0012E7BD12178082978DAED
:20208C00093001707DE0062E73D121683E300160A688868075E0012E6BD12178042968DA61
:2020AC000830EEE7012E64D12178042961DCC01DE7E7202E5DDA05F1890839461F224046A3
:2020CC0003F072FF21463246404603F0BFF9AE7139460FE0202E4CDA05F16A0839461F2257
:2020EC00404603F061FF21463246404603F0AEF96E710121287C3246434606F0F7F8074624
:20210C003FE0022E35D121882846143093E7012E2FD12846017901291BD0C2782178C17059
:20212C0062B900292DD04078012803D0042818BF052826D1012008F09BFA22E0217801BB72
:20214C004178022918BF05291BD1007C08F03AFC17E0122715E0042E0BD1216828462C306E
:20216C0001600EE0102E04D128465A3005E0102E01D0182705E028464A301146102203F07D
:20218C0065F93846BDE8F081A4090020A40900202DE9F0411C4615468C4208BF854282BF06
:2021AC0000230022E5E0002C08BF002D0AD100290EBF00286FF000006FF0000100F0E1F868
:2021CC00BDE8F0815FF000085FF0000E002C08BF8D429CBF2C1C0025070C47EA01470E0CF9
:2021EC00B44208BFBD429EBF5FEA044444EA15445FEA0545070A47EA01670E0AB44208BF90
:20220C00BD429EBF5FEA042444EA15645FEA0525470847EAC1774E08B44208BFBD4200F20F
:20222C009380870847EA81778E08B44208BFBD427CD8C70847EA4177CE08B44208BFBD42D7
:20224C0066D8070947EA01770E09B44208BFBD4250D8470947EAC1674E09B44208BFBD42C4
:20226C003AD8870947EA81678E09B44208BFBD4224D8C70947EA4167CE09B44208BFBD420C
:20228C000DD8E60146EA5566EF01B14208BFB84201D3C01BB14158EB08085EEB0E0EA601D7
:2022AC0046EA95664FEA8517B14208BFB84201D3C01BB14158EB08084EEB0E0E660146EA7E
:2022CC00D5666F01B14208BFB84201D3C01BB14158EB08084EEB0E0E260146EA15762F0138
:2022EC00B14208BFB84201D3C01BB14158EB08085EEB0E0EE60046EA5576EF00B14208BF3B
:20230C00B84201D3C01BB14158EB08084EEB0E0EA60046EA9576AF00B14208BFB84201D356
:20232C00C01BB14158EB08084EEB0E0E660046EAD5766F00B14208BFB84201D3C01BB14177
:20234C0058EB08085EEB0E0EA14208BFA84201D3401BA14158EB08085EEB0E0EA34208BFB0
:20236C00AA423EBF2D0A45EA0465240A89D3734642461E4617460B46024631463846BDE8DA
:20238C00F08170472DE9FC4F83F0004301E02DE9FC4F1F03FF0847EAD2574FEA42284FEA51
:2023AC0043095FEA595906D147EA080A1CBF00210020BDE8FC8F57F000575FF4E06E1EF116
:2023CC00FF0EF14505D14FF00000190D0905BDE8FC8F002B05D55FF0000AD8F100086AEBB1
:2023EC0007070C03E40844EAD0544FEA40254FEA4106760D08D144EA050A19BF00210020A6
:20240C00191C101CBDE8FC8F44F00054764504D10020090D0905BDE8FC8F002904D55FF042
:20242C00000A6D426AEB0404B6EB090E08D5A2463C465746AA464546D046CEF1000E4E46EC
:20244C00BEF1360F5CBF4FF0000B23E0BEF1000F04BF4FF0000B1AE0CEF1390ABAF1200979
:20246C002EBF08FA09FB07FA0AFB4BEA080BDEF1200A07FA0AFA38BFBA4647FA0EF72DBFE8
:20248C0028FA0EF8AEF1200E4AFA0EF8D04415EB08057C4154EA050A02BF00210020BDE81F
:2024AC00FC8F002C58BF4FF0000A06D55FF0010A5FF0000E6D426EEB0404A6F101066D004C
:2024CC006441FAD515F4806E11D005F480794BEA090B15F5806554F1000428BF761C0BD2DB
:2024EC0005F400795BEA090B08BF25F4006525F4E0656D0044EB0404B61CDEBF002100200E
:20250C00BDE8FC8F5FF4E06E1EF1FF0E76450AD34FF0000013F00043FF21C900C91D0905C8
:20252C001943BDE8FC8F270547EA1530210B41EA065141EACA71BDE8FC8FF8B50446002006
:20254C00C4F209000068800880F0BB8007F02BFB42F22421C4F208010A68002112F0030F19
:20256C0018BF0121D20828BF41F00201002C18BF41F0040143F67856C2F2000696F90720B1
:20258C00821A052A04DAB2798A4208BFB2886FD041F29C340F28A0F10F02C5F2000424DBB9
:2025AC0002EB02121712072F88BF07273D46062D88BF062554F825C00423A64603EB850358
:2025CC005EF80330CD08A3EB0C0303F0FF0C24BFC3F30725AC448D0824BFC3F30745AC44D7
:2025EC004D0805D30CEB136C02E04FF0000C674654F82730CC0803F0FF0524BFC3F3072420
:20260C0025448C0824BFC3F3074425444C0828BF05EB1365A2EB07221FFA8CF3534380332A
:20262C000022082B88BF012243F6B473C5F200031C681B684FF4D07C34275219241703F02B
:20264C00FF0307FB14C45C434FF6FF73B4FBF2F2934238BF1A1C802892B2B28005DA10F1A9
:20266C00800F03DA6FF07F0000E07F20F071B17142F20800C4F2090001681F2A4FF0000016
:20268C00316008D340F2FF11914206D25208401C9142FBD301E01F22B2800F3A4FF600712B
:2026AC004FF0350E1209C8F2A401C4F2090E40EAC2000143CEF8FB1F4FF0000CCEF8FFCF56
:2026CC00F8BD43F67E524FF6FD50082141F2300EC2F20002C0F2A4001170C4F2090ECEF8E4
:2026EC000000F8BD2DE9F04F8346ADF15C0D06F07FFE4FF00009012805D107F01DFF0228FD
:20270C0008BF4FF0010954490868C0F38150012806D151F80C1C0120090E884040EA09095F
:20272C004E494F484F4D09780068C0F34600286006F05EFE2C46012818BF206802D12068B2
:20274C00401C206038B1FF2204F1400107467F1E01F8012BFBD1DBF80010002601F0FF027B
:20276C00FF2A1BD08C46DE46324601270CF0FF01884204D907FA01F319EA030F01D0022003
:20278C0067E00CF0FF015EF804CF61181E4381F84020521C0CF0FF01FF29E9D1092001F0A8
:2027AC0013FCC4F804B001A800212422082308F089FB4FF0010804F1240001AA8DF81C80AA
:2027CC00414608F07BFB23682BB300276035BA4608FA07F019EA000F17D1064204BF07F0DE
:2027EC00FF0141F4C04104D0E01990F840005BF820101D4802F01EF9F8B24FF0FF3107F001
:20280C0057FE2368C5F800A001E0042028607F1C2D1D9F42DCD30AA800213022082308F025
:20282C0049FB002504F1080010210AAB0F4A009508F03CFB0E4A52F80D0C414620F4F85085
:20284C0040F4005042F80D0C0A4BC2F8FF1F2846196017B0BDE8F08FB43F0050803D002076
:20286C0080120840683A0020007FC767418300000D300940080009402DE9F84F0D468146F1
:20288C002868D9F80440D9F808B0002800F0A98008F008FB616D21B108F000FB0320287470
:2028AC009FE001212974656508F0F8FA94F8700030B194F859204C49A06E114306F082FECB
:2028CC00DBF80010486840F002004860D9F804C0D9F80830D5F800E09CF8582019681FFA8E
:2028EC008EF09040B1F1804F1FFA80FA14BF3F4E3F4E4048AA6832B99CF858108F00C25962
:20290C000CF1720108E09CF858108F000AEB0201C21952F8082C491EB2607160196801F1BA
:20292C000808C6F80080B2684FEA0E1143F6F07E10390EEA01010A43B2601A68B2F1804F8E
:20294C0014BF2D4A2D4A6E68002E04BFC0599E1D04D0C01950F8100C5644761E906016606A
:20296C00C2F80480906801439160DCF86C00DF6841689A68096847EA020088621968486AED
:20298C0040F003004862DBF80010486940F0010048616E6808F086FA194D07462878012816
:2029AC000AD016F0704F02D1102006F07DFC042006F07AFC01202870384608F06FFA20783A
:2029CC0028B961683834204608F064FA10B10120BDE8F88F484600F0C5FD2046002108F04C
:2029EC0059FA0020BDE8F88F00000680000500203004002024B400001005002040040020BC
:202A0C00863D0020B0B5456884684D48297BADF1180D01291AD001462F7E227C637C4948B7
:202A2C0037F0010741EA020240EA030001904648009218BF011CA27C1143029195F859204F
:202A4C000323FF2A13D0014610460DE0A17C627C237C41F00041024343F00043029195F8C7
:202A6C005900009339490192014304230391FF2105F15C004DF82310694602F0ADFEA86606
:202A8C00002808BF002058D0287B314951F82000012828D02068B0F1804F14BF22220A2211
:202AAC00217CA86E07F0ECF92068B0F1804F14BF21220922617CA86E07F0E2F92068B0F154
:202ACC00804F14BF24220C22A17CA86E07F0D8F995F85910FF292FD02068B0F1804F14BFF1
:202AEC0023220B2225E02068B0F1804F14BF21220922217CA86E07F0C3F92068B0F1804FBC
:202B0C0014BF22220A22617CA86E07F0B9F92068B0F1804F14BF24220C22A17CA86E07F061
:202B2C00AFF92068B0F1804F14BF23220B2295F85910A86E07F0A4F9012006B0B0BDC046BA
:202B4C00000480A0004000800004C0A0002000800CB400004D4B2DE9F04F0C46343B998BEF
:202B6C00ADF13C0D86460991587B0E90598B089158780D90198B0791988C0C90D97A588C6E
:202B8C000691D3F82CA00B90997A188C059193F804900A90597A93F80C800491197AD88BE5
:202BAC000391D9795A7902919979DE8A0191D9789F8A00919978AEF5407C0025BCF11D0F38
:202BCC0010D8DFE80CF05D5653504E4C4A4743403E3C3937350F3432302E2D272422200F7F
:202BEC001D1B1A18BEF1270FA8BF022549DA704605F098FE14E0DDF83880C146CDF8349077
:202C0C000D98059016E00C980B900B980A900A98074622E04433186820609888A08030E044
:202C2C000990099808900898079007980690069E268026E0059804900498039001E03E3348
:202C4C00E9E7039802900298009008E0019A03F1890111E003F16A010EE03846E0E7009924
:202C6C000EE03833D7E7C4F800A00AE003F15A0101E003F14A011022204602F0E7FB00E030
:202C8C00217028460FB0BDE8F08FC046D80900202DE9F04F8046D8F80450D8F808400F4693
:202CAC00ADF1540D08F0FEF895F8981004F10409012903D108F0F2F8002077E04FF0010B42
:202CCC0085F898B008F0EAF81FB90DA807F092FE0DAFF86828B9D8F80800067B90F80DA0AA
:202CEC0002E0067890F801A0FF2EE5D0BAF1FF0FE2D0FF222F49304C139241EA0600119066
:202D0C0041EA0A011291201D11A902F065FD00282060D1D031460D2207F0B2F820685146D4
:202D2C000E2207F0ADF83878287078686860387A002130220823E86001A808F0BBF8CDF81A
:202D4C001880002400941D4AD9F8001005F1100001AB08F0ABF801A824220823214608F009
:202D6C00B1F805F12C008DF81CB0594601AA08F0A5F8287838B905F14800214601AA08F073
:202D8C009DF80F486860AC672C72EC6799F8040001F01AF9404604F07BFF05F18400094A15
:202DAC0000940421434606F089FE404615B0BDE8F08FC04600200084483D00203D3D000010
:202DCC00E1AC0000A1AA0000FEB51446B1F90000B1F904200027FF25C310ADF80070D61071
:202DEC0000F00700ADF8027002F00702ADF8043045FA00F0ADF80660C2F107028DF8080062
:202E0C0005FA02F03D4A8DF80900BDF80600BDF8043098421BD19DF808309DF80900B1F921
:202E2C00027018408DF80800BDF80410B80000EBC7001218891824B99DF808200878904344
:202E4C0003E00A789DF8080010430870FEBD4888B1F90630ADF802000EE006789DF809106D
:202E6C00314303E09DF809600178B1430170BDF80200401CADF80200BDF8020083423BDBC7
:202E8C00BDF80260BDF80400B10001EBC60151184018C4B99DF808600178B14300F8011B36
:202EAC00BDF80410ADF80010BDF80610BDF80060491EB142D6DD00F8017BBDF80010491CFD
:202ECC00ADF80010F0E706789DF80810314300F8011BBDF80410ADF80010BDF80610BDF8A9
:202EEC000060491EB142B8DD00F8015BBDF80010491CADF80010F0E7FEBDC0462205002065
:202F0C002DE9F04304466668A5680F46ADF1540D07F0C8FF96F8A4102D1D012903D107F0A4
:202F2C00BDFF002076E04FF0010986F8A49007F0B5FF1FB90DA807F0B9FC0DAF4FF0000871
:202F4C00C6F854803869306178697061387E3076387B307338783070786886F870807060CF
:202F6C0078694146092828BF494686F85810687801F02AF8204604F013FBE87B86F85900BB
:202F8C002046FFF73FFD50B9687801F063FB07F089FF86F8A48007F081FF444639E001A871
:202FAC0041463022082307F085FF0694CDF800801A4A297806F11C0001AB07F077FF3078CE
:202FCC0078B901A841462422082307F07BFF06F138008DF81C90414601AA07F06FFF104853
:202FEC0000E0B868B06003F045FD317BF066012906D1B06E0B4907F0EDFDB06E00B1846077
:20300C0006F19000084ACDF800800421234606F055FD204615B0BDE8F083C04671370000BF
:20302C00E9AC00001590000041AC00002DE9F0470C469046DFF8F890414D3F4F3D493F4A5E
:20304C00D9F8003008284FF00006ADF1180D69D8DFE800F05F5B4C4844403A1105C0072C1E
:20306C0059D14046828805F108018A8087798F710068086057E003940420ADF80A004FF0D1
:20308C00080AADF808A002A89847D8B904980746C0B1696805F1170088420BD0052148461A
:2030AC00ADF802106A68ADF800A00068019201466846884738464146224602F0C7F96F6089
:2030CC002C7030E013262EE0142C24DC01F11505294601E0142C1EDC0D460BE0142C1ADCA7
:2030EC003D4606E0142C16DC3D4603E0142C12DC1546153528463146152202F055FF284620
:20310C004146224602F0A2F90DE0142C03DC1546DEE7082C01D0182605E0404642686A3900
:20312C004A60A5E70226304606B0BDE8F087C046981A002021190020F7180020CD18002077
:20314C00A81800202DE9F0413E4F3878002876D03D4C208910F07F0F00F07F086DD005F028
:20316C0056FE3A4E21783578A0700DB902293AD12279C30917D2400824D304F1140005F088
:20318C00EDFD04F11A0005F0ADFDE578E088002D08BF217816D00021E17021784FF47A7219
:2031AC0092FBF0F009E0521CD0B20228207109D1E0884FF47A72B2FBF0F002B2500000EB15
:2031CC00C200E0600025022935700CD12089C00909D304F1200000F0C1FB052822D008B128
:2031EC0004F076F82178E66816B901291BD124E0022904F1140509D0022020700026267110
:20320C0000F04EFF10B1404601F08CFA2089000A02D3E068401EE060002012212A4602F084
:20322C00EBFF0AE0E560002020710126267000F037FF10B1607800F0EBFD00203870BDE8F7
:20324C00F081C046843D002014220020833D00202DE9F0430646ADF11C0D07F017FE06F076
:20326C00F5FA4FF000090546CDF8089007F0E8FC30F0010002D00298A84202D16FF00400DB
:20328C0068E070684C4658B1B0F1FF3F05D001A906F0ACFA30B107465BE04FF0FF3000E0B6
:2032AC002046019007F0EEFD0199012701EB000802E013463DE001936868019907F0EAFD3F
:2032CC0000282FD003A804F0C9FAE0B9BDF81000694606F0A3FA90B9B268BDF80000BDF8EC
:2032EC0012101346059A984748B1BDF80000BDF81210B081059BF1814F46336112E0059948
:20330C0002A806F0DDF80198641CB0F1FF3FD3D00028D1D007F0B6FDB8EB000302D001980D
:20332C009842C8D2029E07F07DF805F1080146B1334653F80C2C002ABBD10A6843F80C2C74
:20334C000E6007F035FA24B1686807F097FD641EFAD1384607B0BDE8F0837047FEB508464B
:20336C00002608AFC410FF253988ADF8006000F00700D71002F00702ADF8024045FA00F0B7
:20338C00C2F10702ADF80470344F8DF8060005FA02F08DF80700BDF80420BDF80240184693
:2033AC00A24216D19DF806309DF807201A408DF80620BDF802408600002906EBC0021744F6
:2033CC003C4408BF9DF806101ED021789DF8060041E0BDF80240820002EBC002BF18E419B0
:2033EC00E9B99DF806102078884304F8010BBDF80200ADF80000BDF80400BDF80010401ED1
:20340C00884204DC9DF807102078884324E004F8016BBDF80000401CADF80000EBE721785A
:20342C009DF80600084304F8010BBDF80200ADF8000006E004F8015BBDF80000401CADF842
:20344C000000BDF80400BDF80010401E8842F1DC21789DF8070008432070FEBD22050020DB
:20346C002DE9F843804607F0A9FB002100B901213A4D2D1F28680028FCD0DFF8DC900126D1
:20348C0009F10407FC6A2E6009B107F09DFB3448C4F3072100F10804616007F08FFB0146FD
:2034AC00002001B93046014628680028FCD03F682E6009B107F088FBC7F38441A8F5C06040
:2034CC00A160B8F5C06F2060B4BF6FF001030223626803EB4003032093FBF0F00918104685
:2034EC0002290FDB1E290BDB3F28B9BF521C401C3F22101CE2603029B4BF10391F210DE0C4
:20350C00E0600BE010F13F0FACBF401E6FF03F00E06011F1100FACBF10310021216180B2DC
:20352C004FF47F42082330210090484604F06BF90096484604214FF40032112304F063F947
:20354C00208A04214FF4F80212230090484604F05AF9BDE8F883C04600A00C4004800C40D7
:20356C00E42400202DE9F04707467C68BE6807F099FC0834E16C002968D007F08FFC3168E2
:20358C00486820F0020048603168486A20F003004862606EF5684168B268096845EA02001D
:2035AC00C1F804053168486920F00100486130684FF00108C0F820803068B0F1804F14BF26
:2035CC0040F201104FF48070224909688847384603F0E6FFE06CD0F804A007F063FC1E4DEF
:2035EC008146287850B11AF0704F02D1102005F0D3FB042005F0D0FB00202870484607F0A7
:20360C004DFCE16C087C042802D003200874E16C606E4368B268F0681B6845461043854089
:20362C00DD623068B0F1804F14BF0C480C48026808689204A0EB9250401E0860206800236E
:20364C000246E36438469047BDE8F08707F026FCBDE8F08778000010863D00200805002091
:20366C00380400203A482DE9F04F0821ADF11C0D0068ADF8101001460120ADF8120004A823
:20368C008847374CBDF8140060800698A06003F0AFFC04F10C0006F07FFE4FF0000884F8B0
:2036AC0000804FF47A76A68006F0FEFB02206421012206F0E9FF4FF0FF3104F1100001F029
:2036CC0031FD2448244D07682448B5FBF7F9B0FBF7FA38E0012006F00FFC484607F012FCEF
:2036EC0002A804F06FFE8346404606F005FCBBF1000F1CD002A801A96A4600F029FA9DF81A
:20370C0005308DF809309DF804208DF808209DF806008DF80A009DF802108DF80D109DF83C
:20372C0001308DF80C309DF800208DF80B204046062102AA02F0EAFEA0887043401BB0FB12
:20374C00F7F007F0DFFB20780128C3D05046F8E7981A002034B900008038010040420F00D3
:20376C00741000202DE9F0470646B1680A687468D06908341062400842D2606E4068026876
:20378C00CD68D2F80405284206D00B68586A20F002005862C2F80455D2F80425886802429A
:2037AC0058D00A68506A20F001005062606E406889680068C0F80415E06C00250574E76C09
:2037CC00D7F804A007F06EFBDFF88C80814698F8000050B11AF0704F02D1102005F0DCFA38
:2037EC00042005F0D9FA40460570484607F056FB2068E5643946024630469047BDE8F087FF
:20380C000A68506920F001005061E76CFFB9506820F002005060506A20F003005062606EDD
:20382C008B684468CF682168B2F1804F47EA0300C1F804050CBF4FF4807040F20110074924
:20384C0009688847304603F0ABFEBDE8F0873046FFF788FEBDE8F087863D00207800001075
:20386C002DE9FC4191EA03084CBF4FF000484FF000084FEAC32545EA52554FEAC2264FEA39
:20388C0043077F0D11BF45F0004500210020BDE8FC815FF4E06E1EF1FF0E774555D04FEAC2
:2038AC00C12343EA50534FEAC0224FEA4104640D11BF43F0004300210020BDE8FC817445DC
:2038CC0043D0E419A3FB0501A3FB06E7A2FB06631EEB030E57F1000751F10001A2FB0563E6
:2038EC001EEB060E57F1000751F10001FF1851F10001C01951F100014CBF4FF4806E4FF418
:20390C00007E10EB0E0051F1000148BF641C01D4400049415FF44077FF37E41BDEBF0021AE
:20392C000020BDE8FC8117F58067BC420DD24FEAD02040EA41504FEA41014FEA113141EA64
:20394C00045141EA0801BDE8FC810020FF21C900C91D090551EA0801BDE8FC81FEB53D4C11
:20396C0005460621601C017006F0E6FF18B907F03DF90020FEBD002601206821667002F090
:20398C0089FB2220694601228DF80000372006F0D1F908B90520607007F028F96078002819
:2039AC0018BF301C54D101200C2102F073FB02206946012206F012FF00283CD09DF8000041
:2039CC00400836D303200DF10101072206F006FF68B39DF80700000927D29DF802709DF8EE
:2039EC0001009DF804609DF803109DF806309DF8052040EA072041EA062142EA032200B2EE
:203A0C00288009B2698012B2AA80B4F90830584300122880B4F90A00414308126880B4F93C
:203A2C000C0042431012A88007E0032004E0042002E0022000E00120607011208DF8000002
:203A4C00694601220A2006F075F907F0CFF86078FEBDC0467823002038482DE9FC470068A7
:203A6C000068014620208847354DDFF8D8A04FF002080F2000214FF4C072072345F82D0CFD
:203A8C0041F61D5045F8290C5046CDF8008003F0BAFE2D4C012644F8046C54F8040C80084E
:203AAC00FBD3DFF8A890B9F8000045F81D6C01281FD0032045F8390C00272760206880082B
:203ACC00FCD23946504660220523009103F09BFE266020688008FCD345F8216C45F8397C0F
:203AEC000820C5F8FF0FC5F8F30F45F8396C464620E00027E760032045F8390C2760206878
:203B0C008008FCD2CDF80080504639466022052303F079FE266020688008FCD3202045F8F3
:203B2C00210C45F8397C0824C5F8FF4FC5F8F34F45F8396CC9F80460BDE8FC87A001001044
:203B4C0039400C4000A00C4038600C40E4240020F8B53A4BC578047944EA05242501B3F987
:203B6C000270447990F800C045EA24151C88EE10A6EB4406C4EB251464432513B3F9044026
:203B8C0077436C43A41304EBE724877804EB840580352E12457845EA0C20B3F90A500E6007
:203BAC00000140EA271E6010A0F57A40811049434C136C43B3F9085045436D1005EBE405BD
:203BCC004FF4004404EBA544DD886543EF1331D09C46BCF90E40BCF91030BCF90C50164E1B
:203BEC00C91260434B4340F63544290403EB400301EBA30104FB1E65081304FB1050C10F44
:203C0C0019BFB0FBF7F040004000B0FBF7F0BCF91410BCF91650BCF91240C30886085B432A
:203C2C0071435B0B49136B4301EB2331641800EB24101060F8BDC046000050C31C3D0020C2
:203C4C00F8B506F0BBFF314C256805F00C000C2855D0E8082ED22E480068EFF3118780F3DC
:203C6C0011882C4EB068002107F004F97169B269091A8A4238BF002187F311882648006813
:203C8C00884217D22548264A264D036812682868B3FBF2F22018891A07F0E8F82868201894
:203CAC0007F0E0F80120FDF73BFE2868201807F0D5F825E0280922D21B48690939BF0168EF
:203CCC0021F00101016841F0010102460160D2F898004FF0805440F00300C2F89800D4F8BA
:203CEC00B8018069014620208847D4F8B8010F4C806B2168804701202060206800E030BFAD
:203D0C0006F062FF02F01EFFF8BDC046BC1F002030B900007801002028B900002CB9000033
:203D2C0034B9000018B900008C2108402C200940F8B5064635480068B46875684068014669
:203D4C0020688847226801210835C2F81C1868B12B78FF2B0AD0FF214009297051D2042020
:203D6C00C2F80408022006F0E5FF4AE02878002847D0401E13D0401E02D0FD3844D03DE095
:203D8C00D2F80828A86E0270A86E401CA866EF6E7F1EEF6619D0012F88BF092127E06F6E58
:203DAC007F1E6F6613D1EF6E7FB10220E96D28702268097C012F4FEA410141F00101C2F85D
:203DCC00001894BF03210B2113E004210DE0286E22680078C2F80808286E022F00F10100FC
:203DEC00286604D2EF6E17B905210020287022680220C2F8041806F09DFFF8BDFF202870C8
:203E0C00F8BD304603F048FBF8BDC046AC010010F8B5064606F090FD00284FD00120682150
:203E2C0002F038F900284BD02E4D09202C1D0122207021466B2005F07DFF00283ED00720B0
:203E4C002871214601226C2005F074FF002835D001271D2021462F713A4605F06BFF00289F
:203E6C002CD04020287121463A46382005F062FF20B3C020287121463A46692005F05AFFA2
:203E8C00E0B12E711F2021463A4605F053FFA8B10620287121463A461E2005F04BFF68B1E4
:203EAC002920287121463A466B2005F043FF28B1E91C1C203A4605F03DFF18B906F096FE45
:203ECC000020F8BD3A2021463A4606F087FC06F08DFE002129706869034905F073FB38460E
:203EEC00F8BDC046782300200700068031482DE9F04F08214FF0010BADF1140DADF80410F9
:203F0C000068ADF806B0014601A888472D4DBDF8080068800398A86003F022F905F10C0041
:203F2C0006F09CFA4FF47A764FF000090422AE80484685F80090014606F0CAFB297858463E
:203F4C00024606F0C5FB06F022FF022064215A4606F0BEFB4FF0FF3105F1100001F0E2F80A
:203F6C0015491648164F0C68B0460646B0FBF4FA1AE0584604F0F8FB504606F0C3FF0DF1FA
:203F8C000200694601F0B4FC484604F0EDFB484604216A4602F006FDA88808FB00F0801B43
:203FAC00B0FBF4F006F0AEFF28780128E1D0B7FBF4F0F7E7981A002034B9000038320400A8
:203FCC0040420F00E41500202DE9F04105462E480068EFF3118880F311882C4A505D411CB4
:203FEC000028515549D12A4CA900675C07F03F003F280C4401D0FFF7E7FF607800F03F004A
:20400C003F2801D0FFF7E0FF668837F07F0019D1F80911D24FF08054D4F8B801406901469D
:20402C003046884704F5DC742068406B0146304688470128F8D120E0164850F82610012038
:20404C0088471AE04FF08054D4F8B801C069014630468847D4F8B801406A01463046884783
:20406C00D4F8B801C06A01463046884701210A4A0A48116001688908FCD388F31188284675
:20408C0005F062FFBDE8F08130B90000801B002044B40000981B00202820086028200840F9
:2040AC00F8B5334D2F49686905F08CFAFF20A87000242C7068216C70012001F0EBFF002883
:2040CC0008BF271C4CD02C4680200122211D20716B2005F02FFE06F089FD234923480D6835
:2040EC00B0FBF5F006F00EFF03F020F9261D071C36D0022003F0AEFC06F01EFC60B304F0D3
:20410C00EBF958B301200C2101F0C4FF30B30F203070314601220A2005F00CFE42F2107079
:20412C00B0FBF5F006F0EEFE04F10E011020032206F054FB04F10E0140B10878803020819D
:20414C0048788030608188788030A08101220B203146227105F0EEFD06F048FD04F0E4FAEC
:20416C003846F8BD0700008034B90000A0860100782300202DE9FF4782460D460CAF287AD6
:20418C003F8899461446800928BF082055D2084602A905F0E5FD012808BF01204DD0BDF8A1
:2041AC000800DFF89C8042F60211FF26401A2ED048F26311401A012827D827BBB9F1010F64
:2041CC001FD1BDF808104AF666200027884202D12178032913DA2178EA681170BDF80810A1
:2041EC00884205D0E968404688421AD13E461AE0E9684046401C884213D1012613E0802768
:20420C000FE00D270DE00B270BE00A2709E000970121224650464B460191294603F0C8FA4D
:20422C000746FF2E08D04046001D006820B1006810B101463046884738460090BDE8FF8756
:20424C00082100202DE9FE4F82460D460CAF287A3C8898469146800928BF082056D20846A7
:20426C0002A905F07DFD012808BF01204ED0BDF80800DFF89CB042F602110026FF27401A18
:20428C002ED048F23F11401A34D0401E14D0801E24D10CBBB8F1010F1CD199F800000A2827
:2042AC0008DBE9680870E9685C46601C884221D1022721E080261DE074B9B8F1010F09D18E
:2042CC0099F80000E9680870E9685C468C4211D1012711E00D260DE00B260BE00A2609E067
:2042EC00009401214A46504643460191294603F05FFA0646FF2F08D05846001D006820B1BA
:20430C00006810B10146384688473046BDE8FE8FE41C00202DE9FE4F82460D460CAF287A31
:20432C003C8898469146800928BF082056D2084602A905F015FD012808BF01204ED0BDF854
:20434C000800DFF89CB042F602110026FF27401A2ED048F21F11401A34D0401E14D0401ECF
:20436C0024D10CBBB8F1010F1CD199F800000A2808DBE9680870E9685C46601C884221D135
:20438C00022721E080261DE074B9B8F1010F09D199F80000E9680870E9685C468C4211D187
:2043AC00012711E00D260DE00B260BE00A2609E0009401214A46504643460191294603F02A
:2043CC00F7F90646FF2F08D05846001D006820B1006810B10146384688473046BDE8FE8F36
:2043EC007C1D00202DE9FE4F82460D460CAF287A3C8898469146800928BF082056D2084696
:20440C0002A905F0ADFC012808BF01204ED0BDF80800DFF89CB042F602110026FF27401A47
:20442C002ED048F2FF01401A34D0401E14D0401E24D10CBBB8F1010F1CD199F800001E2801
:20444C0008DBE9680870E9685C46601C884221D1022721E080261DE074B9B8F1010F09D1EC
:20446C0099F80000E9680870E9685C468C4211D1012711E00D260DE00B260BE00A2609E0C5
:20448C00009401214A46504643460191294603F08FF90646FF2F08D05846001D006820B1E9
:2044AC00006810B10146384688473046BDE8FE8F101E00202DE9FE4F82460D460CAF287A62
:2044CC003C8898469146800928BF082056D2084602A905F045FC012808BF01204ED0BDF884
:2044EC000800DFF89CB042F602110026FF27401A2ED048F27F11401A34D0401E13D0401ECF
:20450C0024D10CBBB8F1010F1CD199F800000A2807DBE9680870E9685C468C4222D10227E2
:20452C0022E080261EE07CB9B8F1020F0AD1E868494609880180E9685C46601C884211D1F3
:20454C00012711E00D260DE00B260BE00A2609E0009401214A46504643460191294603F088
:20456C0027F90646FF2F08D05846001D006820B1006810B10146384688473046BDE8FE8F64
:20458C00401C00202DE9FE4F82460D460CAF287A3C8898469146800928BF082056D2084631
:2045AC0002A905F0DDFB012808BF01204ED0BDF80800DFF89CB042F602110026FF27401A77
:2045CC002ED048F26F11401A34D0401E14D0401E24D10CBBB8F1010F1CD199F800000A28F4
:2045EC0008DBE9680870E9685C46601C884221D1022721E080261DE074B9B8F1010F09D14B
:20460C0099F80000E9680870E9685C468C4211D1012711E00D260DE00B260BE00A2609E023
:20462C00009401214A46504643460191294603F0BFF80646FF2F08D05846001D006820B118
:20464C00006810B10146384688473046BDE8FE8FA41E00202D492DE9F0410968EFF311885E
:20466C0081F311882A4B195C4A1E01291A5449D12849800045180E5C6F8836F07F0019D1DF
:20468C00F00911D24FF08054D4F8B801806901463846884704F5DC742068406B01463846DC
:2046AC0088470228F8D120E01D4850F82710002088471AE04FF08054D4F8B801006A014616
:2046CC0038468847D4F8B801806A014638468847D4F8B801006B01463846884701210E4A80
:2046EC000E48116001688908FCD306F03F003F2801D0FFF7AFFF687800F03F003F2801D0C6
:20470C00FFF7A8FF88F31188BDE8F08130B90000801B002044B400002820086028200840EA
:20472C00981B0020BCB5074606F006F900285AD02E4C207840BB3FB306F0FEF810B30120C6
:20474C00682101F0A7FCF8B10920211D207101226B2005F0EFFA251DA0B13F20287029460A
:20476C0001226C2005F0E6FA0021217050B1E11C1C20012205F0DEFA20B13A202946012210
:20478C0006F02CF806F032FAF8B2277040B380F0FF0020716821012001F07CFC28B3211D71
:2047AC006C20012205F0C6FA06F020FA247806F0C3F8C4F38014B0B103F08EFEA8B1012087
:2047CC000C2101F067FC80B1002C0CBF00201120694601228DF800000A2005F0ABFA02E0D6
:2047EC0003F0A2FFBCBD06F001FABCBD782300202DE9F04782460E467068DAF80810DAF87E
:20480C000450002401F1040810B9F06800284ED0287801280FD106F045FBA96F39B1E96F76
:20482C008E61EE6706F03AFB0120BDE8F087AE67EE6706F033FB06F035FB1E4F8146387828
:20484C00012804D0042004F02FFD01203870484606F024FB05F12C094FF0FF31484606F081
:20486C0019FBD8F8000006F0F5FA5046314601F091FFD8F8000006F0E9FA287898B905F145
:20488C0048004FF0FF3106F005FB06F00BFB0646387818B1042004F07FFA3C70304606F0F5
:2048AC00FDFA287A00B90124484606F0E7FA2046BDE8F087813D00201CB52D4C401E02D036
:2048CC00401E44D01CBD06F0AFF9400931D32089FF2831D00120694604F042FBBDF800000F
:2048EC0010F07F0F18D0BDF800002081022002F0F5F806F021F8A8B11E48006841F28831BD
:20490C00B1FBF0F006F0FEFA04F00AFABDF8001041EA0020208105E0BDF80000208100200D
:20492C0002F0DCF804F108020120022101F064FC07E0FF20083420800120FF21022205F0D5
:20494C008BFC00201222014605F086FC1CBD02200DF1020104F004FB9DF80200410001EBFF
:20496C00C001E18004F1280003F04AF81CBDC0461422002034B9000070B52C4E2C4D012854
:20498C0006D068BB31460020491C05F021FC27E03146012005F01CFC34462078022817D035
:2049AC00621C0020012102F083FF28680A21002204F00EFB28680F21002204F009FB60683B
:2049CC0006F04CFA28681521002204F001FB07E006F02AF9621C60700121002002F068FFCE
:2049EC0031460878012820D1344628686178490834BF002201220A2104F0EAFA28686178C2
:204A0C00890834BF002201220F2104F0E1FA61786068C90807D206F021FA2868152100227E
:204A2C0004F0D6FA70BD06F01DFA70BDAC2300203C0D0020F8B50D46EEB2290824BF2749C3
:204A4C004D40274BB400DFF89CC0195900EA05020CEA020200F4E02C85EA0107BCF5E02FD0
:204A6C0000EA070721EA0001C7F3006742EA010201D1510E14D300F4E0210F4310D002F4A1
:204A8C00E027B7F5A02707D0B7F5803704BF22F4003242F4A02203E022F4803242F4C02290
:204AAC001A51114CC10D04D3C5F38052A4F180018A55000E11D306F0F5F9290E03D20122F9
:204ACC000021B24002E00122B24011465034236893431943216006F0E1F9F8BD006000A022
:204AEC0000100840007F077F8020024029482DE9F04308210125ADF1140DADF80410006882
:204B0C00ADF80650014601A88847254CBDF8080060800398A06002F099FA04F10C0005F0AB
:204B2C0073FC4FF47A76A68005F05CFA022064212A4605F0B5FD04F079FF4FF0FF3104F1C8
:204B4C00100000F0EFFA1448144F0568B04643F698200646B0FBF5F916E005F08BFA48466A
:204B6C0006F0D0F90DF10201684603F081F9002004216A4601F0AEFEA08808FB00F0801B06
:204B8C00B0FBF5F006F0BEF920780128E5D0B7FBF5F0F7E7981A002034B9000040420F0091
:204BAC002C13002070B52B4C2278607882424BD000200121224603F057FD244D2878022871
:204BCC0002D1207805F0B4FD63782278204E980819D3900817D22878062810D1E568206943
:204BEC003168401B4FF47A75414340F6B830B1FBF5F1884207DA41F27070884203DD02F0F5
:204C0C007FFD2278637803F0030003281CD102F00300032818D030682569E16853409B08DC
:204C2C003CBF6168A5684FF47A736D1A684341F27071B0FBF3F0814206DA15200A2103F09D
:204C4C00FFF902F0D9FC2278627070BD300D002034B90000182500202B482DE9F8430D4632
:204C6C009C4608AF91466968BC883E884B78027809784FF0000842F6232701EB0321C91B62
:204C8C00674628D0491E052917D9891F0CD0263933D1072E2ED8C6F10701A14298BF8CB285
:204CAC003618083631461FE0B24223DB921BA242D8BF94B23C8040680BE0E86805F032FEC2
:204CCC0080B2B04216DB801BA042D8BF84B23C80E868311809E0082E0CD8C6F10801A1426E
:204CEC0098BF8CB231180F313C804846224600F0ADFB06E04FF0070803E040464FF00A0852
:204D0C0038804046BDE8F883A81800202DE9F0412A4C04F1100004F11C0100F05DFD00210A
:204D2C00206000B10121081C41D00025E5606FF07F40A06003F0F6F904F16808242208239F
:204D4C004046294606F0BEF8012604F14C0784F8806038463146424606F0B0F81D212068FA
:204D6C006760324604F034F9124904F1300005F0FFF9606BA168026A406890470346606B87
:204D8C00E168026A40682364904702460A49606BA164836A4068626491B29847626B506ADD
:204DAC000146506888472168284601B13046C0B2BDE8F08178B6000010B20000301F002013
:204DCC0041F21C3010B5C5F200000468B4F1FF3F08BF002405F088FD40F2844346F25C018A
:204DEC00002242F2082E012040F2801CC4F26023C4F20C011A60C4F2043E0860C4F2283C3C
:204E0C00CEF80000DCF8000038B140F20010C4F2203000682046FBF7E3FB44F20402C4F22B
:204E2C0003021068052142F24803C2F20001C4F2030320F003000143116019684FF0000E3D
:204E4C00C0F2391E6FF35B414EEA01000421C4F2090118600868C0F30130012809D10A68E0
:204E6C004FF6FF70CFF6FC40104040F400320A60086010BD2DE9F04F09AFADF11C0D924670
:204E8C0006903C880493D7F80880059197F80490039430B1081C04D0181C18BFB8F1000FD2
:204EAC0001D1022038E01E4801780026354630E0069C04EB8504B4F800B04FF6FF70584583
:204ECC0023D0A7780FB303990498059A05F080FA0290D0B178080AD3CDF80090CDF804809E
:204EEC00029B01215846524601F01CF80643A07880080AD3CDF80090CDF804802088029B03
:204F0C005246022101F00EF80643054801786D1CEDB2A942CCDC304607B0BDE8F08FC046B2
:204F2C00A409002029482DE9F84FD0F80090EFF3118589F31188264CA068012105F09AFFBB
:204F4C004FF0010A4FF00008064621686769A4F81CA02068A4F81E80791A321A8A42A6EBB9
:204F6C0007062DD385F311884546EF195046394605F068FF761B0546B542F6D9EFF3118BE3
:204F8C0089F31188E08B012804D14046394605F059FF0546B5F1FF3F06D0A169AD1BA94273
:204FAC0038BF0D1CE91901E0A5697919284605F045FFA4F820A0A4F81C805D46276001E0FC
:204FCC00A4F81C8085F31188BDE8F88F30B900007801002038B5284C054600216808A4F1FC
:204FEC000104217009D300F07FFA002808BF207804D0217841F0010121700846A90809D337
:20500C0001F0D3FD002808BF207803D0207840F002002070290909D300F0B4FA002808BF74
:20502C00207803D0207840F008002070E90809D302F06DFF002808BF207803D0207840F04C
:20504C0004002070690909D302F070F9002808BF207803D0207840F010002070A90909D3B7
:20506C0003F042FB002808BF207803D0207840F02000207038BDC046D93C00202DE9FC4799
:20508C000D460AAF287A3C8898469246800928BF082043D20846694604F062FE012808BFEE
:2050AC0001203BD0BDF80000DFF874904AF601510026FF27401A10D0401E22D1FCB9B8F161
:2050CC00040F1ADAE8685146424600F0BFF9E9684846884216D1012716E084B9B8F1100FF3
:2050EC000BDCE8685146424600F0B0F9E96848460830884206D1374606E00D2602E00B2654
:20510C0000E00A26FF2F08D04846001D006820B1006810B10146384688473046BDE8FC872E
:20512C00302000202DE9F84F0E46044605F0E2FE834625480068EFF3118A80F31188D4F830
:20514C0008904E4533D01E481E4D0768002E06D4AF69012000FA06F807EBC60702E04FF0BC
:20516C0000087F19207D012817D1204605F062FE206C05F0C3FE18B1E16868688843686063
:20518C002869844212BF381C6F613868214605F04DFE686848EA00006860A660C4F80C8058
:2051AC002764002E44BF00206861012028818AF31188584605F08AFE4846BDE8F88FC04683
:2051CC00E80500000001002030B90000F8B5264C2068EFF3118680F3118824491D4D0B6856
:2051EC000420B0FA80F043F00403281A1F3002780B60521C027086F311882068EFF31183C5
:20520C0080F311880A680820B0FA80F042F008022D1AE87F0A60401CE87783F311880E2076
:20522C00FEF7D2FE0C480068C0F38150032814BF0020012009490A4A088017683FB9094C24
:20524C00402020600123D36100204860F8BD0120F8BDC046931B0020B43F0050E424002078
:20526C0004800C402C500C4030B90000BC1F0020F0B520480127F84201D003F011F8204DFD
:20528C00204F214EBD4206D203CD0478A4003459401CA047F6E71D48002800D08047164D29
:2052AC00164FBD4202D210CDA047FAE7F0BD03251BE0416808300A1C2A400BD11A1C2A4048
:2052CC00AB4305D0046804300C600431043BF9D1131C05D0047801300C700131013BF9D150
:2052EC00021C2A4001D0A84304300368002BE0D17047C046FFFFFFFF00000000000000002A
:20530C00F0C3000078C4000070C3000059C50110F8B5022A074601DB242A02DD0020087069
:20532C001FE00B460C463E4697FBF2F70EA002FB1765401990F82300002F03F8010BF2D19C
:20534C00002E44BF2D2003F8010B002003F8010905E020781A7803F8010904F8012BA34276
:20536C00F7D80846F8BDC0467A797877767574737271706F6E6D6C6B6A69686766656463ED
:20538C006261393837363534333231303132333435363738396162636465666768696A6BF2
:2053AC006C6D6E6F707172737475767778797A00F0B50446234DA7682868ADF12C0D67BB2D
:2053CC000C2000F0EFFB071C1ED0684600212422082305F027FD002306976A466168ADF873
:2053EC0010301948059305F019FD386078B908210C22ADF82410A869ADF82620014609A870
:20540C008847384604F028FC6FF0030018E0E06878602069B860A7600AE08047064638685C
:20542C0005F01CFD2069B86068680146304688473868616805F01AFD386805F013FD00201B
:20544C000BB0F0BD801A0020AFAC0000002A4AD05FEA000C8B071CD1830722D1102A08D319
:20546C0070B4103A78C978C0103AFBD270BC103238D0042A2CD3082A05D30C2A24BF08C98B
:20548C0008C008C908C008C908C092072AD0920F22E00B780370491C401C521E22D08B0725
:2054AC00F7D1C30714D18307D8D0121F12D308C903801B0C4380001D121FF8D20AE008C910
:2054CC0003701B0A43701B0A83701B0AC370001D121FF4D2121D05D00B780370491C401C36
:2054EC00521EF9D16046704710B50020442100F0D1FD002808BF002440D0214C1F2002220E
:20550C00214605F06BF9002835D021880806000C40EA2120782815D1102020802146022085
:20552C00024604F007FC30B302202146024605F055F900B321880806000C40EA2120B0F5A3
:20554C00805F01D0208016E00020208021460220024604F0EFFB70B102202146024605F0A3
:20556C003DF940B121880806000C50EA2120208008BF012400D0002405F038FB204610BDDF
:20558C00703D00201CB50020772100F083FD002808BF00243FD0D0206946012205F01EF949
:2055AC00002835D09DF80000582831D1F5206946012205F013F900282AD09DF8000038BB09
:2055CC0055208DF8000069460122F42004F0B2FBF0B1F4206946012205F000F9C0B19DF8C3
:2055EC000000552814D1B6208DF8000069460122E02004F09FFB58B1F4206946012205F09E
:20560C00EDF828B19DF80000002808BF012400D0002405F0EBFA20461CBDF8B5064604F01D
:20562C001BFC43F63455C2F200056F68044604F0BAFA2A69E41B4FF47A716143090C801AF0
:20564C0048BF404240F6B83289198A4216D3062814DAA968E868814210D82A6872B1401A07
:20566C0044F24021C0F20F014143080C00EB9140824212D91046C82811D312E043F6AC7150
:20568C00C5F200014868400828BF4FF4FA600DD209687D2001F0FF014843C82801D2C820B6
:2056AC00F8BDB0F57A6F88BF4FF47A60F8BD704730B5234D0446012CADF1140D2ED1012020
:2056CC00694604F04BF89DF80000401E23D0401E1FD0401E1AD0401E10D0401E08D0401E8B
:2056EC001CD19DF8010028709DF802306B7015E002F096FB0FA000F0F3FD0FE09DF8010055
:20570C0028709DF8010004F037FE07E004F046F904E0012000E0002004F058F944B90020A5
:20572C0001A904F01BF829786A7801A801F0D0FB05B030BD436F6E6E656374656400C04689
:20574C00402500201CB5234C401E02D0401E31D01CBD05F069FAC00824D32078FF2823D047
:20576C000120694604F0BAF89DF80010207869B9A0B104F1080005F011FB002004F0FCF9F0
:20578C0000200222014604F097FF07E030B9012004F0F2F904F1080005F0FEFA9DF8000099
:2057AC0020701CBDFF2020700120FF21024604F083FF1CBD0220694604F090F89DF800000B
:2057CC00410001EBC001618004F1080002F018F91CBDC0469C2400202DE9F843204E0F461B
:2057EC0004464FF0FF3106F12405284605F052FBA946002000E0401C6FB117F82010FF2942
:20580C0009D032688A4204D906EB8101096E0029F1D000241CE0002020604FF001086060C4
:20582C000546A0600EE00878636808FA00F01843606006EB82030A6808491C66204604F0B6
:20584C0065F86D1C27B107EB85010A78FF2AEAD1484605F013FB2046BDE8F883007FC767DC
:20586C00683A0020401E1CB502D0401E2ED01CBD05F0DAF91C4C00091DD32078FF281CD050
:20588C000120694603F09AFD9DF8000030B19DF80000012816D10121217007E000200622A5
:2058AC002070014604F0F0FE4FF0FF3104F11000FFF738FC06E0FF2020700120FF21024667
:2058CC0004F0E2FE002004F017FB1CBD0220694603F074FD9DF8002004495000091D00EB51
:2058EC00C20008801CBDC04674100020741000202DE9F04105460E460020442100F0CAFB0B
:20590C00002808BF002035D01B4C04200222214604F064FF5FEA000822D021880806000CF4
:20592C0040EA2120C0F380382080C00B18D3A11C0120022204F052FFA71C5FEA00080FD0F5
:20594C00B91C0320022204F049FF80463A78B978FB78787840EA0220288043EA01233380DF
:20596C0005F044F9B8F1010F03D0A01C042105F012F84046BDE8F081703D002038B5042003
:20598C0004F00AFB1A4C022818BF03281FD103200090164800214FF040521C2301F033FF1B
:2059AC0017480068EFF3118380F3118815480421B1FA81F1401AC17F4A1E0129C27703D1BA
:2059CC00206820F00400206083F3118838BD094D0A48094A296803686018B2FBF3F105F0A6
:2059EC0045FA2868201805F03DFA38BD00A00C40BC1F00201CB90000A086010034B90000A3
:205A0C0030B90000931B002010B51A481A490078086820F0030040F00100086002F044FF70
:205A2C0001F092FD0021154C154821600068C0680146022088471349134A086820F0010078
:205A4C0008601068D4F8EC1FEFF3118480F311880E4B0F481A680421B1FA81F1401A42F000
:205A6C000402C17F1A60491CC17784F311884FF0FF3010BD803D0020044003404010094075
:205A8C00A00100108C21084030B90000BC1F0020931B00202DE9F0411E49876846680868E7
:205AAC0004F04CFC38680024C0F810483968C1F80448D1F8200820F01000C1F8200805F03D
:205ACC00F1F9154D8046287818B1042003F064F92C70404605F0E2F9387AFEF7BBFD06F183
:205AEC00100005F097F906F12C0005F08FF9307818B906F1480005F089F906F1840004F0C7
:205B0C00F3FC05F0CFF986F8984005F0C7F9BDE8F081C046483D0020813D0020F8B505462B
:205B2C001E480068EFF3118780F311881C4C20684FF0805640F080002060D6F88C014068CD
:205B4C00014601208847D6F8B001006A014614208847286906F5C675810C14BF010C042176
:205B6C002868406A024601209047D6F88401006823210246002090472868C0690146012040
:205B8C008847206820F4C02040F480302060206840F00100206087F31188F8BD30B9000060
:205BAC0000200940F8B5001D84B214F0030002D0241A241DA4B204F035FC01461948102CB9
:205BCC0047680160C8BF8768388800221646C30BDD0319D126B984420ADD3A46012617E033
:205BEC001388C3189BB29C42138011DC174618469FB1001B80B20428B4BF3C88385344F4FA
:205C0C0000443C803F1D08E080F40040002680B2C71938880028DAD10027084604F0C8FD87
:205C2C003846F8BD881A0020401E1CB502D0401E2BD01CBD04F0F8FF1A4C40081AD3207812
:205C4C00FF2819D00120694603F030FE9DF8000038B900200422014604F03AFD4FF0FF318A
:205C6C0000E0012104F11000FFF75CFA9DF80000207006E0FF2020700120FF21024604F08E
:205C8C0027FD002002F070FD1CBD0220694603F00DFE9DF8002004495000091D00EBC20088
:205CAC0008801CBDE4150020E4150020401E1CB502D0401E28D01CBD04F0B6FF194C80087F
:205CCC001AD32078FF2819D00120694603F05EFD9DF8000038B900200422014604F0E0FC22
:205CEC004FF0FF3100E0012104F11000FFF71AFA9DF8000020701CBDFF2020700120FF212A
:205D0C00024604F0CDFC1CBD0220694603F03EFD9DF8002004495000091D00EBC2000880ED
:205D2C001CBDC0462C1300202C1300201E48F8B5851E287880F080008DF80000012004F0DA
:205D4C008BFC642004F0F6FF0121684603F00EFE00263446681C451C0670601C04F0C4FC49
:205D6C008DF800000121684603F000FE0C272846012103F0FBFD6D1C7F1EF8D18DF800604F
:205D8C006846012103F0F2FD641C602CE5DB8DF800606846012103F0E9FD642004F0CAFFAA
:205DAC00304604F059FCF8BD220500209EB50020CC1001F00701ADF8000006AF8020ADF835
:205DCC00024008418DF804003F88ADF80020BDF80000834226DB144A6FB9BDF80040BDF86C
:205DEC000210A00000EBC4009DF80440091850180178A1430CE0BDF80040BDF80210A0002F
:205E0C0000EBC400091850189DF80410047821430170BDF80000401CADF80000BDF80000D9
:205E2C008342D9DA9EBDC0462205002041F2A00010B5C5F20000D0F8781203680A0F03F01E
:205E4C00FF03802B28BF0023D0F878024BF69A11C0F30F344FF0FF30A14213D02431A142EF
:205E6C0007D04BF62031A1421DD1E2B90A3358B210BD12B1921E02D010BD0A2010BD1433DD
:205E8C0058B210BD521E0DD0921E04D0121F04D0521E04D010BD142010BD152010BD1633EC
:205EAC0058B210BD0A2010BD2DE9F043ADF13C0D05F020F8184D1A4C002680462D1F183C74
:205ECC00684600213C22082304F09CFF55F8041F6068A768069023680897002205910F48B9
:205EEC000493694604F08AFF071C10D004F09AFA8146384601F0D8F848B1484604F058FC73
:205F0C00241D761CDCD0404604F0E0FF01E002F0C3FA0FB0BDE8F0837C1A002041AA000095
:205F2C00F0B200002DE9F0430E4691461D4607AF80461B214FF6FF72ADF11C0D03AB04F005
:205F4C003FF8059038B300210091BDF80C100191FF2402947C6802460DF11203404629467C
:205F6C00A047041C12D16889ADF81000700805D340464A4604A904F0C3F905E03B784046A4
:205F8C004A4604A904F0EEFD041C05D004A81B2104F02CFA00E01524204607B0BDE8F08394
:205FAC00002213460A46194671B510F0030F0BD0002A82BF00F8011BB2F1010210F0030F61
:205FCC00F6D1002A08BF71BD11F0FF0141EA0121042A18D341EA0141082A0FD30E46102A59
:205FEC0008D30C460D46B2F10F0312F00F0272C0103BFCD812F0080F18BF42C012F0040FF5
:20600C0018BF40F8041B12F0020F18BF20F8021B12F0010F18BF017071BDFEE7F8B51446B3
:20602C0086684268084602F10C05203827D0401E21D0401E1CD123781549906E194300F03E
:20604C00B3FE90B93068B0F1804F14BF23220B222178E86D03F014FFE86D95F84D1001F0C9
:20606C0051FC207885F84D0010E04FF0FF30F8BD6FF00100F8BD002085F86400F8BD2978E6
:20608C000020012908BF012085F864000020F8BD002000802DE9F843804689461648194CC3
:2060AC00144A016804F11400B2FBF1F104F0F2FE00284946404608BF002018D0124A0F4DCD
:2060CC0011702978814211D02870206804F0DAFD261D304604F08EFC28783146012804BFC9
:2060EC0007482061002004F03FFA20600120BDE8F883C046A025260034B90000823D0020F9
:20610C00BDB80000A83C0020853D0020F8B50E46307A1D46144606AF400928BF082030D2A1
:20612C003888002818BF0B202BD10846694603F017FE012803D1002101202980F8BDBDF816
:20614C0000004AF681210027401A13D0401E0BD0401E03D038460A27288011E00120288072
:20616C00F068007820700BE002202880F0680088208005E012222A80F1682046FFF766F9A7
:20618C003846F8BD70B50646F088F5680B28A5F108052CDAB0880B2829DA04F043F9154C9F
:2061AC00F28891000C3401EBC20161184968E1B104F0FEFA30792870B0796870307AA8702D
:2061CC00F188880000EBC1002018F1684068083003F076F9F188880000EBC1002418606882
:2061EC00406804F04BFE002070BD04F0E1FA6FF0020070BDF01A00207FB5194C0B460025CB
:20620C0011461A4678B1401E06D0401E24D1012A0BD10878207020E0022A06D11248098806
:20622C00401C018019E0122A01D0182515E004F10C0612223046FFF709F908200090FF23BA
:20624C000193084A0292A068314604F120032A46FEF710FE054600E00225284600907FBD22
:20626C00401C002019610000401C00202DE998431A4C8146A41E20780F4680F020008DF8BE
:20628C000000012004F0E8F9642004F053FD0121684603F06BFB00208046607001218DF8AE
:2062AC000080684603F062FB0B49086800F00F004008FAD308684009FCD2642004F03AFD46
:2062CC00404604F0C9F9002F0CBF4146FF21484604F000FBBDE898830C0000402205002005
:2062EC0010B50446ADF1180D0120694600F044F9002168460A4600F0EBFD4FF44170694629
:20630C00FCF728FC684601F063FD01210A4600F0DFFD0320694600F02FF90BA00221012242
:20632C0000F0D6FD02210B22684600F0D1FD0A2004F022F80B2004F01FF80B2102222046AE
:20634C0000F0C6FD06B010BD4657207265762E0070B5002124220823ADF1280D684604F097
:20636C00B1FD134C01256A4629468DF8185004F1140004F0A3FD0F48006801464FF440703C
:20638C00884702F061FD261D304604F033FB00203146257304F0E8F8074BFF221A700749A7
:2063AC00206000220A7008B904F024FD0AB070BDA83C002078000010853D0020823D0020AB
:2063CC00F8B50E46307A1D46144606AF400928BF08202CD23888002818BF0B2027D108460E
:2063EC00694603F0BDFC012803D1002101202980F8BDBDF800004AF64121401A4FF00001A8
:20640C000DD0401E05D0801E03D008460A2128800CE001202880F0680078207006E00620AD
:20642C002880F068026822608088A0800846F8BD10B54AF2000434214FF080521C23C4F2D9
:20644C000C04204602F0CEF8012826D0204634210122002302F0C6F8002808BF00201DD036
:20646C008020C1F200000068804703F0F5FC43F6345344F24022C2F20003C0F20F029C68D4
:20648C001968D860041BA1EB91016243120C8A4224BF1A60012001D21960012010BD0CB4F3
:2064AC004FF07F4343F460034FEA4102D21A1BD24FEA105040EA013010F5807024BF4008CC
:2064CC0001F580114FEA5020002948BF40F000404FEA4101490DB1F560710CD4FF290DD2B1
:2064EC0040EAC1500CBC7047DB431A40024305D0D8430CBC704700200CBC704701F00041D9
:20650C00FF204FEAC05008430CBC70471FB5174B0C4601461046002269B1491E08D0491E36
:20652C001FD1012C09D1134B5B1C0078187019E0012C02D1F9E7062C01D0182212E004680F
:20654C0003F10C010C608088888008240094FF240194074C029498681433FEF78BFC024646
:20656C0000E00222104600901FBDC046E41C0020CD630000E41C002070B5054608461849B4
:20658C004F394B680A780024082D06D8DFE805F01F1A18161412100E07C002241DE001F1B8
:2065AC000802938883809179817114E019460BE08E3108E0793106E0643104E04F3102E05B
:2065CC003A3100E025311422FEF740FF05E001F10F025168416011680160204670BDC046EF
:2065EC00F718002038B50079184CA0B903F01AFF2178002904BF6FF00704051C13D0491ED7
:20660C00C9B2217029B904F0D3F8606802F084FE18E0054613E003F005FF05462078FF284E
:20662C0005D16FF00604284604F0C2F80BE0401CC0B20128207002D1606802F088FE284600
:20664C0004F0B6F80024204638BDC04638250020FEB5194C0546208C218B81420CDC618B38
:20666C00814209DBA08B618C884205D1E08BA18C884208BF18271DD0052002F053F9278B45
:20668C00638BADF80270A28BADF80430E18BADF806200646ADF80810E08AADF800006846E6
:2066AC0004F098F9071C05D104F1F0003146A57302F0E2FC3846FEBDA4090020F8B500B2A7
:2066CC001D4616460F4603F040FA0FA494E80C00FDF7C6F80EA20CCAFDF7C2F80EA20CCAC6
:2066EC00FBF750FEFFF7DBFE3060384603F0C4FD94E80C00FDF7B4F809A20CCAFDF7B0F878
:20670C00FFF7CDFE2860F8BD000000000000F03E0000000000A06440000000000000444079
:20672C000000000000005940F8B50E46307A1D46144606AF400928BF08202AD2388800285B
:20674C0018BF0B2025D10846694603F009FB012803D1002101202980F8BDBDF800004AF6AF
:20676C0001510027401A0DD0401E03D038460A2728800DE003202880F068018821808078A3
:20678C00A07005E010222A80F1682046FEF75EFE3846F8BD98B54268806851660B68083296
:2067AC0013664B6853668B689366C968D166576E77B9D16D0B7C0168580040F00100C1F82F
:2067CC000008D36E0220022B107012D30B2211E0D16D0368097C01274900C3F80018116EA1
